{
  "contractName": "Contribution",
  "abi": [
    {
      "inputs": [
        {
          "internalType": "address",
          "name": "_tokenAddress",
          "type": "address"
        },
        {
          "internalType": "address",
          "name": "_tokenOwner",
          "type": "address"
        }
      ],
      "stateMutability": "nonpayable",
      "type": "constructor"
    },
    {
      "anonymous": false,
      "inputs": [
        {
          "indexed": true,
          "internalType": "address",
          "name": "contributor",
          "type": "address"
        },
        {
          "indexed": false,
          "internalType": "uint256",
          "name": "etherAmount",
          "type": "uint256"
        },
        {
          "indexed": false,
          "internalType": "uint256",
          "name": "tokenAmount",
          "type": "uint256"
        }
      ],
      "name": "Donate",
      "type": "event"
    },
    {
      "anonymous": false,
      "inputs": [
        {
          "indexed": false,
          "internalType": "uint256",
          "name": "amount",
          "type": "uint256"
        }
      ],
      "name": "Withdraw",
      "type": "event"
    },
    {
      "inputs": [
        {
          "internalType": "address",
          "name": "",
          "type": "address"
        }
      ],
      "name": "donationAmountFrom",
      "outputs": [
        {
          "internalType": "uint256",
          "name": "",
          "type": "uint256"
        }
      ],
      "stateMutability": "view",
      "type": "function",
      "constant": true
    },
    {
      "inputs": [],
      "name": "donate",
      "outputs": [],
      "stateMutability": "payable",
      "type": "function",
      "payable": true
    },
    {
      "inputs": [
        {
          "internalType": "uint256",
          "name": "amount",
          "type": "uint256"
        }
      ],
      "name": "withdraw",
      "outputs": [],
      "stateMutability": "nonpayable",
      "type": "function"
    }
  ],
  "bytecode": "0x608060405234801561001057600080fd5b506040516104e43803806104e48339818101604052604081101561003357600080fd5b810190808051906020019092919080519060200190929190505050816000806101000a81548173ffffffffffffffffffffffffffffffffffffffff021916908373ffffffffffffffffffffffffffffffffffffffff16021790555080600160006101000a81548173ffffffffffffffffffffffffffffffffffffffff021916908373ffffffffffffffffffffffffffffffffffffffff1602179055505050610404806100e06000396000f3fe6080604052600436106100345760003560e01c80632e1a7d4d146100395780633a62136c14610074578063ed88c68e146100d9575b600080fd5b34801561004557600080fd5b506100726004803603602081101561005c57600080fd5b81019080803590602001909291905050506100e3565b005b34801561008057600080fd5b506100c36004803603602081101561009757600080fd5b81019080803573ffffffffffffffffffffffffffffffffffffffff1690602001909291905050506101be565b6040518082815260200191505060405180910390f35b6100e16101d6565b005b600160009054906101000a900473ffffffffffffffffffffffffffffffffffffffff1673ffffffffffffffffffffffffffffffffffffffff163373ffffffffffffffffffffffffffffffffffffffff161461013d57600080fd5b3373ffffffffffffffffffffffffffffffffffffffff166108fc829081150290604051600060405180830381858888f19350505050158015610183573d6000803e3d6000fd5b507f5b6b431d4476a211bb7d41c20d1aab9ae2321deee0d20be3d9fc9b1093fa6e3d816040518082815260200191505060405180910390a150565b60026020528060005260406000206000915090505481565b60008054906101000a900473ffffffffffffffffffffffffffffffffffffffff1673ffffffffffffffffffffffffffffffffffffffff166323b872dd600160009054906101000a900473ffffffffffffffffffffffffffffffffffffffff1633600a34026040518463ffffffff1660e01b8152600401808473ffffffffffffffffffffffffffffffffffffffff1681526020018373ffffffffffffffffffffffffffffffffffffffff1681526020018281526020019350505050602060405180830381600087803b1580156102aa57600080fd5b505af11580156102be573d6000803e3d6000fd5b505050506040513d60208110156102d457600080fd5b81019080805190602001909291905050506102ee57600080fd5b34600260003373ffffffffffffffffffffffffffffffffffffffff1673ffffffffffffffffffffffffffffffffffffffff1681526020019081526020016000205401600260003373ffffffffffffffffffffffffffffffffffffffff1673ffffffffffffffffffffffffffffffffffffffff168152602001908152602001600020819055503373ffffffffffffffffffffffffffffffffffffffff167f49bb2edd8608e46c3b9823ec2dabe8ddf219c00870a4a112ff60a1a70669f45734600a3402604051808381526020018281526020019250505060405180910390a256fea2646970667358221220cf2a9cc5d34b7475bc7c36c139ca465587db901f40e23ae5bef14f05db38aca764736f6c63430007060033",
  "immutableReferences": {},
  "source": "// SPDX-License-Identifier: MIT\r\npragma solidity >=0.6.0 <0.8.0;\r\n\r\nimport \"./Token.sol\";\r\n\r\nimport \"@openzeppelin/contracts/token/ERC20/ERC20.sol\";\r\n\r\n/// @title A contribution place to accept ethers\r\n/// @author Iwan Effendi\r\n/// @notice You use this with Token contract\r\n/// @dev All functions have been unit tested\r\ncontract Contribution {\r\n    using SafeMath for uint;\r\n\r\n    Token private token;\r\n    address private tokenOwner;\r\n    uint256 private constant multiplier = 10;\r\n    mapping(address => uint256) public donationAmountFrom;\r\n\r\n    event Donate(address indexed contributor, uint256 etherAmount, uint256 tokenAmount);\r\n    event Withdraw(uint256 amount);\r\n\r\n    /// @notice initialize the token address and the token owner address\r\n    /// @param _tokenAddress the token address\r\n    /// @param _tokenOwner the token owner address\r\n    constructor(address _tokenAddress, address _tokenOwner) public {\r\n        token = Token(_tokenAddress);\r\n        tokenOwner = _tokenOwner;\r\n    }\r\n  \r\n    /// @notice when calling the function, you need to specify the sender and value in the metadata parameter\r\n    /// @dev emit Donate event\r\n    function donate() payable public {    \r\n        require(token.transferFrom(tokenOwner, msg.sender, msg.value * multiplier));\r\n        donationAmountFrom[msg.sender] = donationAmountFrom[msg.sender] + msg.value;\r\n        emit Donate(msg.sender, msg.value, msg.value * multiplier);\r\n    }\r\n\r\n    /// @dev emit Withdraw event\r\n    /// @param amount the amount of the ethers that the token owner withdraws\r\n    function withdraw(uint256 amount) public {\r\n        require(msg.sender == tokenOwner);\r\n        msg.sender.transfer(amount);\r\n        emit Withdraw(amount);\r\n    }\r\n}",
  "sourcePath": "C:/ie/projects/upstate-github/src/contracts/Contribution.sol",
  "compiler": {
    "name": "solc",
    "version": "0.7.6+commit.7338295f.Emscripten.clang"
  },
  "schemaVersion": "3.3.4",
  "updatedAt": "2021-04-02T20:21:36.390Z",
  "networkType": "ethereum",
  "devdoc": {
    "author": "Iwan Effendi",
    "details": "All functions have been unit tested",
    "kind": "dev",
    "methods": {
      "constructor": {
        "params": {
          "_tokenAddress": "the token address",
          "_tokenOwner": "the token owner address"
        }
      },
      "donate()": {
        "details": "emit Donate event"
      },
      "withdraw(uint256)": {
        "details": "emit Withdraw event",
        "params": {
          "amount": "the amount of the ethers that the token owner withdraws"
        }
      }
    },
    "title": "A contribution place to accept ethers",
    "version": 1
  },
  "userdoc": {
    "kind": "user",
    "methods": {
      "constructor": {
        "notice": "initialize the token address and the token owner address"
      },
      "donate()": {
        "notice": "when calling the function, you need to specify the sender and value in the metadata parameter"
      }
    },
    "notice": "You use this with Token contract",
    "version": 1
  }
}